:1000000002214712236412263680FB0222C7E4FF36
:10001000FE120557600C0FEF70010E09E970F20A2D
:1000200080EF2202008BE47815F2209004E2440174
:10003000F22087067815E24402F27815E212122DBA
:100040007BFF7A2779B08F2F901030E0540FF53076
:10005000A3E0F53112073E901030E0540FFCA3E00E
:1000600012129A121230901032E0FFC3135401782A
:1000700015F2E225E0FEF2EF54014EF2E212122DEB
:100080007BFF7A2779CB8F2F02073E309904C299E4
:10009000C209320220A6020300E86480F8E933E8CE
:1000A0003360110460F0ED33EC337009E8FCE9FDD6
:1000B000EAFEEBFF220460DED3EB9FEA9EE99DE8B7
:1000C000C2E78CF0C2F795F0400CE8CCF8E9CDF926
:1000D000EACEFAEBCFFB1202CB85D0F058047003C6
:1000E00020D5B3E80470075002B2D502030A92D5B6
:1000F000EC0460F7E4CCC0E0C398F8603B9418606F
:1001000008400DD0E0FB0202E2E4FBFAC9FC8028C3
:10011000E830E406E4C9FBE4CAFCE830E305E4C9DE
:10012000CACBFCE854076010F8C3E913F9EA13FAE4
:10013000EB13FBEC13FCD8F130F52FC3E49CFCEF80
:100140009BFFEE9AFEED99FDD0E0FBEF4E4D4C701B
:100150001222DB03020307EC2CFCEF33FFEE33FE2D
:10016000ED33FDED30E7EB0202E2EF2BFFEE3AFE5E
:10017000ED39FDD0E0FB50130BBB000302030AED89
:1001800013FDEE13FEEF13FFEC13FC0202E2EC4D45
:100190006011E8497017ED33EC3304600DE4FCFFA7
:1001A000FEFD22E933E8330470F80203001202CBAB
:1001B00058046009E4CC2481500628500902030A3F
:1001C000284003020307C0E0EB4A7044B98006D020
:1001D000E0FB0202F6EF4E701CBD8008EBFFEAFE6A
:1001E000E9FD80EBE98DF0A4FEE5F0020277E9CDB0
:1001F000F9EAFEEBFFEF89F0A4FCE5F0CE89F0A46C
:100200002EFFE435F0CD89F0A42DFEE435F08067B3
:10021000EF4E7005BD80D780C3EF8BF0A4ACF0EE3D
:100220008BF0A42CFCE435F0F8EF8AF0A42CE5F078
:1002300038FCE433CB8DF0A42CFCE5F03BF8EE8ADF
:10024000F0A42CFCE5F038F8E433CF89F0A42CFCC2
:10025000E5F038CF3400CE89F0A42FFFE5F03EFE64
:10026000E433C98DF0A42EFEE5F039CD8AF0A42F39
:10027000FFE5F03EFEE43DFD33D0E0FB50070BBB55
:10028000000F02030AEC2CFCEF33FFEE33FEED33DC
:10029000FD0202E2EDD2E7CD33EC3392D52481406A
:1002A00006E4FFFEFDFC22FCE4CFCECDCC24E050E2
:1002B0001174FF80EDC3CC13CCCD13CDCE13CECFB4
:1002C00013CF0470F030D5DE020604E9D2E7C9335B
:1002D000E833F892D5EDD2E7CD33EC33FC5002B2DF
:1002E000D522EC30E7100FBF000C0EBE00080DBD8C
:1002F00000040BEB6014A2D5EB13FCED92E7FD229A
:1003000074FFFCFDFEFF22E480F8A2D574FF13FC0D
:100310007D80E480EFF920E72824F950037907E491
:10032000F42402FB18DBFDE624FB5014E9600DE425
:10033000F618E604F6B40A08E4F6D9F57401F60AEC
:1003400022C2D522ED33EC3392D5FA602AB4FF33C2
:10035000EDC2E77BFF60067A037969E4227A0379CC
:100360007220D5047A03796D224E614E002B494EDE
:1003700046002D494E4600E47A08F608DAFC7B0078
:10038000740722E8C0E0ECC0E0EDC0E0EEC0E0EFB2
:10039000C0E0EA75F010A4CAABF075F04DA42BFBD9
:1003A000E435F0FCEA2410FAEB34C5FBEC34D9FC5C
:1003B000EDC2E7FF75F056A4F42411C5F0F434C57E
:1003C0008FF0A42AE5F03BE43CF620E71412051771
:1003D000D0E0FFD0E0FED0E0FDD0E0FC12044A8087
:1003E00014F404120517D0E0FFD0E0FED0E0FDD0F9
:1003F000E0FC12018ED0E0F8E6FAEDD2E7CD33EC66
:10040000332482FBE4C3CF33CFCE33CECD33CD33D1
:10041000DBF37B0775F00A846004F6081B0AE5F03D
:10042000F6088FF0740AA4FFACF08EF0740AA42CC6
:10043000FEACF050010C8DF0740AA42CFDE435F0F4
:10044000F608DBDE74072202030AEC5D046005E8AF
:10045000590470030203001202CB580460F6EC4802
:1004600060F2EC7004FDFEFF22C860DB2481C850FE
:1004700009C398600250060203079850CAF582E942
:10048000294B4A7005AB820202F675F0007C1A789F
:1004900080C3EF9BEE9AED99400DC3EF9BFFEE9A60
:1004A000FEED99FDE842F0DC23ACF0D0E0FFD0E0B7
:1004B000FED0E0FDAB8220E7101BEB60BAEC2CFC19
:1004C000EF33FFEE33FEED33FD0202E2E803F830D6
:1004D000E705C0F075F000EF2FFFEE33FEED33FDC2
:1004E00040B830E7C280AA3F8000004120000042AF
:1004F000C80000447A0000461C400047C350004931
:100500007424004B1896804CBEBC205A0E1BCA6740
:1005100053C21C749DC5AEFB60065407601C2323A8
:10052000120545EB543860091205311205401201DD
:100530008EECF8EDF9EEFAEFCB22EB12054080F1EC
:10054000543803241C9004E7FE93FC0EEE93FD0E3A
:10055000EE930ECE93FF22BB010689828A83E022AE
:100560005002E722BBFE02E32289828A83E49322BF
:10057000BB010CE58229F582E5833AF583E0225040
:1005800006E92582F8E622BBFE06E92582F8E2228A
:10059000E58229F582E5833AF583E49322BB0106DF
:1005A00089828A83F0225002F722BBFE01F322BC2B
:1005B000000BBE0029EF8DF084FFADF022E4CCF8F3
:1005C00075F008EF2FFFEE33FEEC33FCEE9DEC9858
:1005D0004005FCEE9DFE0FD5F0E9E4CEFD22EDF8DE
:1005E000F5F0EE8420D21CFEADF075F008EF2FFF81
:1005F000ED33FD4007985006D5F0F222C398FD0F69
:10060000D5F0EA22C3E49FFFE49EFEE49DFDE49C56
:10061000FC22EB9FF5F0EA9E42F0E99D42F0E89C57
:1006200045F022E8600FECC313FCED13FDEE13FE62
:10063000EF13FFD8F122E8600FEFC333FFEE33FE74
:10064000ED33FDEC33FCD8F122ECF0A3EDF0A3EE9A
:10065000F0A3EFF022ECF208EDF208EEF208EFF270
:1006600022D083D082E493F208740193F2087402DA
:1006700093F208740393F2740473FAE6FB0808E635
:10068000F925F0F618E6CA3AF622D083D082F8E4CB
:10069000937012740193700DA3A393F8740193F5F2
:1006A000828883E4737402936860EFA3A3A380DF5E
:1006B000EF4E6012EF60010EEDBB010B89828A8361
:1006C000F0A3DFFCDEFA2289F05007F709DFFCA96E
:1006D000F022BBFEFCF309DFFCA9F022E543242F46
:1006E000F8E6054322782C300702782FE475F001F4
:1006F00012067A0205572000EB7F2ED2008018EFF9
:10070000540F2490D43440D4FF30040BEF24BFB4F2
:100710001A0050032461FFE544600215440547E5D3
:10072000477002054630070D782CE475F00112067B
:100730007AEF02059D02263C7403D2078003E4C2CF
:1007400007F5438B2C8A2D892EE4F544F546F547B1
:10075000E54460077F2012071780F57545FFC20149
:10076000C200C202C203C205C206C2081206E5FFE9
:10077000700D3007057F00120728AF47AE4622B440
:10078000255FC2D5C2041206E5FF24D0B40A00508A
:100790001A75F00A784430D50508B6FF0106C6A4DC
:1007A00026F620D5047002D20380D924CFB41A00D3
:1007B000EF5004C2E5D204020A15D20180C6D2006D
:1007C00080C0D20280BCD2D580BAD20580B47F204E
:1007D0001207172002077401B5440040F11206DC2D
:1007E000FF120717020750D208D20680951206DCC6
:1007F000FB1206DCFA1206DCF94A4B7006790C7A19
:100800000B7BFF20022EE544602A7E008E827583DA
:100810000012057060060EEE654570F0C2D5EBC0A3
:10082000E0EAC0E0E9C0E0EE120A75D0E0F9D0E0FD
:10083000FAD0E0FB120557FF60AAEBC0E0EAC0E087
:10084000E9C0E0120717D0E02401F9D0E03400FA43
:10085000D0E0FBE5450460DCD545D98087D2028035
:10086000A2120A5860F7E545700104120315A94564
:10087000600DE545600914F545120AFFEF60F3EAE3
:1008800030E702F404C3995077EAF425450430E7D1
:1008900001E404F545800D120A5860C1EA054525BA
:1008A00045120315EA7842F630E701E4254504D500
:1008B000450420050114120A75E4C0E0120AFF780D
:1008C00042E6601320E70714F61206FF802204F6C2
:1008D000D0E014C0E07F001206FFE5456007120675
:1008E000F61545800B3005031206F6D0E0020750DE
:1008F000D0E00480C5120A5860A0E5450412031533
:100900007842EAF6E5452005026001042404120A53
:100910007574FF04C0E0120AFF1206FFE5452005CA
:100920000260031206F6D0E0B545E87F45120709DC
:100930007842E67F2B30E7047F2DF404C0E01207F5
:1009400017D0E075F00A84C0F0120700D0E012075B
:1009500000020750791080027908C206C208800898
:10096000D2D5790A8004790AC2D5E545047002F52A
:1009700045E4FAFDFEFF1206DCFC7B0820011312A1
:1009800006DCFD7B1030000A1206DCFE1206DCFFDE
:100990007B20EC3382D592D55013C3E43000069F00
:1009A000FFE49EFEE42001039DFDE49CFCE4CBF803
:1009B000C201EC700CCFCECDCCE824F8F870F380F7
:1009C00017C3EF33FFEE33FEED33FDEC33FCEB33B7
:1009D000FB994002FB0FD8E9EB300105F8D0E0C4E9
:1009E00048B201C0E00AEC4D4E4F78207B0070C247
:1009F000EAB5450040BCC0E0120A77D0F0D0E02054
:100A00000104C4C0E0C4B201C0F0120700D0F0D5A8
:100A1000F0EB02075012068A07ED5309545807BE3F
:100A20004C07BA4209584F09604409604907D3434B
:100A300009665508974608F5450861470B2C50078D
:100A4000C22D07C62E07E92B07CA2307E7200B157F
:100A50002A078248000007E1E545B4FF0375450613
:100A60001206DCFC1206DCFD1206DCFE1206DCFFC0
:100A7000783B020344790AA2D5200314300509B952
:100A800010020404B9080104A2D520060250010492
:100A90002002689202B544005034C0E07F20300349
:100AA000197F30A20272067205500F120ACEC202DE
:100AB000C206C205C2087F30800F300503E9C0E0DE
:100AC000120717300503D0E0F9D0E0B544CC30056B
:100AD000177F30B9100C1207177F583004077F7842
:100AE0008003B908031207173002057F2D0207178C
:100AF0007F202008F87F2B2006F322920280CF7FF0
:100B000000B407005005243BF8E6FF22286E756C00
:100B10006C2900D2011206DC3001F8C201784430A1
:100B2000D50108F60207822D504349581206DC24ED
:100B300003B405004001E4900B2793120708743AB0
:100B4000120708D203754404020954781AE2FF0818
:100B5000E2780FCFF208EFF2781CE2FF08E278119A
:100B6000020DFE7811E2FE08E2FF780F121F3E70C0
:100B700002EC6E7003020E067807121F2BE2FE08CD
:100B8000E2FFC39404EE940040137809E2F4700D80
:100B900074482D121F6764557003020DDEC3EF9475
:100BA00003EE9400400974482D121F677809F2780B
:100BB00005E2B407004003020DDE900BC1F82828BF
:100BC00073020BD6020BF8020C32020C39020C41F4
:100BD000020C75020CB174482D121F67F470117865
:100BE00007E26402700218E26003020DDE020CA943
:100BF0007BFF7A2979FC8034780B121F56780A1211
:100C00001FDA6404700218E26003020DDE7805E268
:100C100004F2780BE224FB121F9DD3EF94F4EE94C0
:100C2000015003020DDE7BFF7A2A792112073E0272
:100C30000DDB121F4578088005121F457800F280F1
:100C4000687804121F567803121FDA6408700218BD
:100C5000E26003020DDE780BE224FB121F9DD3EF4E
:100C60009400EE94007805E2400504F2020DDE24C3
:100C700002F2020DDE121F45FF780C08E2FD24018E
:100C8000F218E2FC3400F274FB2DF58274073CF597
:100C900083EFF07807E224FD121F9D780BE26F705E
:100CA0000318E26E6003020DDE7805E204F2020D25
:100CB000DE121F45780EF2780BE22404FF18E234AE
:100CC00000FE7807E26F700318E26E60097BFF7A1E
:100CD0002A7964020DAAE4FF12224F780EE26F60B7
:100CE00003020DCC7808E2FF7803E2FC08E2FD1273
:100CF0000E108E228F23EFF524E522F5257BFF7A57
:100D00002A799D780AE2F52F08E2F5307808E2F5B5
:100D1000317800E2F5327803E2F53308E2F5341277
:100D2000073EE4F526F527780DE26527700418E202
:100D3000652660227BFF7A2979EC74FB2527F582F2
:100D400074073526F583E0F52F12073E0527E527C2
:100D500070D5052680D17BFF7A2979F3780EE2F5EC
:100D60002F12073EE5247057B5230DE522B4F00895
:100D70007BFF7A2A79C7803DE4B52310E522B4F1E0
:100D80000B7A2A79EF120E0774028049E4B5231F0B
:100D9000E522B4F21A7BFF7A2B792012073E121C4F
:100DA0009AEF60377BFF7A2B795512073E802C7BB8
:100DB000FF7A2B799112073E900A0974038016E599
:100DC00025AF24700280111221D3800F7A2B79BBBA
:100DD000120E077401F07F1212139C12253C78103A
:100DE000121F2B08E2B4E80E18E2B40309E4F2087B
:100DF000F2781AF208F2780FE2FF08E2781ACFF2DE
:100E000008EFF2020B63227BFF12073E900A0922D1
:100E1000E47813F208F2EF12068A0E72010E8402D1
:100E20000E94030EA6040EB5050EC4060ED7070ECB
:100E3000E9080EF8090F070A0F1A0B0F290C0F3CCF
:100E40000D0F4E0E0FAF0F0FBF100F5D110F5D1284
:100E50000FCD130FDB140F6C150F7B160FEC170F54
:100E6000FA18100B211019220F8E290F9D2A00004D
:100E7000102CED4C7813600302101FE4F20874028A
:100E8000F2021034ED4C7813600574F002103074E7
:100E900001021030ED4C7813600302101FE4F208D9
:100EA0007404F2021034ED4C7813600474F0800284
:100EB0007401021030ED4C7813600474F0800274F9
:100EC00001021030ED4C7813600302101F74FFF222
:100ED000087405F2021034ED4C7813600302101F01
:100EE000E4F2087408F2021034ED4C7813600474D4
:100EF000F080027401021030ED4C7813600474F03D
:100F000080027401021030ED4C7813600302101F50
:100F100074FFF2087409F2021034ED4C7813600487
:100F200074F080027401021030ED4C7813600302FB
:100F3000101F74FFF208740BF2021034ED4C78139A
:100F4000600302101FE4F208740EF2021034ED4C3C
:100F50007813600474F080027401021030ED4C7854
:100F600013600474F0800274F2021030ED4C7813B8
:100F7000600474F080027401021030ED4C7813604C
:100F80000302101F74FFF2087415F2021034ED4CC6
:100F90007813600474F080027401021030ED4C7814
:100FA000136002807A74FFF2087429F2021034EDA3
:100FB0004C781360028068E4F2087410F28075EDDA
:100FC0004C7813600474F0800274018063ED4C78F7
:100FD00013600474F0800274018055ED4C78136046
:100FE00002803C74FFF2087413F28048ED4C7813D1
:100FF000600474F0800274018036ED4C7813600256
:10100000801D74FFF2087417F28029ED4C7813608C
:101010000474F0800274018017ED4C78136004743E
:10102000F0800D74FFF2087421F28008781374F1D7
:10103000F208E4F27813E2FE08E2FF229007FCE0F7
:101040001212DE5401FE6F602212131EFEEF54FED8
:101050004EF01212FC70067A2779E980047A27791B
:10106000EF1213037A2779D412073E1212D7C31353
:101070005401FE6F602712131E25E0FEEF54FD4E53
:10108000F0E0FFC31212FB70067A2779E980047A38
:101090002779EF1213037A2779F412073E1212D739
:1010A00012137F604C12131E25E025E0FEEF54FB67
:1010B0004EF0E0FF1313543F7BFF30E0067A2779B0
:1010C000E980047A2779EF1213037A28790A120744
:1010D0003E900A07E030E2191212FC70067A287975
:1010E0003180047A2879381213037A287923120779
:1010F0003E1212D712137E60191212E670067A277A
:1011000079E980047A2779EF1213037A287940125B
:10111000073E1212D7C45401FE6F601F12131E1235
:1011200013561212FC70067A28796A80047A28799C
:10113000721213037A28795212073E1212D7C4137F
:101140005401FE6F602912131EC43354E0FEEF54A5
:10115000DF4EF0E0FFC41212FB70067A28796A8035
:10116000047A2879721213037A28797D12073E9047
:1011700007FBE05407FF900A08E054F84FF0900A8C
:1011800007E030E40F7BFF7A287991A3E05407F55C
:101190002F12073E9007FBE05408131313541FFF50
:1011A000900A08E012137E60191212E670067A287F
:1011B00079BE80047A2879C31213037A2879A6129B
:1011C000073E9007FBE05410C4540FFF900A08E05C
:1011D000C45401FE6F601F12131E1213561212FC2C
:1011E00070067A2779E980047A2779EF1213037A57
:1011F0002879C812073E22780108E2FF2401F2187C
:10120000E2FE3400F274542FF582740A3EF583E452
:10121000F008E2FF2401F218E2FE3400F274542FC9
:10122000F582740A3EF583223EF583E493FF78014C
:1012300008E2FD2401F218E2FC3400F274542DF5AA
:1012400082740A3CF583EFF022E0FFEB4FFFEAFEE9
:10125000E9FDE8FC9007F61206499007F6E0FCA3CA
:10126000E0FDA3E0FEA3E0FF78081206369007F643
:101270001206499007F6E0F8A3E0F9A3E0FAA3E02C
:10128000FB22E054FEF09009EFE0FCA3E0FDA3E0B8
:10129000FEA3E022E493FC740193FDECFF780108C7
:1012A000E2FB2401F218E2FA3400F274542BF582C6
:1012B000740A3AF583EFF0AF05227814E22401F2C4
:1012C00018E23400F22208E2FE04F274FB2EF582EA
:1012D000E43407F583E0229007FCE0C313F05401E7
:1012E000FF900A07E022E0FFEEF454013333335459
:1012F000F8FEEF54F74EF0E0FF13131354016401AE
:101300007BFF228B2F8A3089317BFF227813E2FE0C
:1013100008E2FF64084E22E47813F208F222E0FFAC
:10132000EEF4540122F583EEF018E204F222781074
:10133000E2FF18E2FE6F227813E2FF640822FEED5E
:1013400099FDEC98FCE4F9F8D30206127814E2FF58
:1013500004F274FB2F22C454F0FEEF54EF4EF0E081
:10136000FFC422EE9007EFF0A3EFF0227810F2E432
:1013700018F2227813E2FE08E2FF64204E221313D3
:10138000135401FE6F2224FAF582E43407F583E05A
:1013900022E2FC08E2FD08E2FE08E2228F297A261A
:1013A000794C12153118121211E529F07800E21269
:1013B000122DE52924FC70030214C824FC700302DA
:1013C00014F524FA70030214FC24FE7003021506BF
:1013D00024FE700302151424106003021523121159
:1013E000F7E4F07813F208F212130C600F74202F58
:1013F000F582742C1212281212BA80EC12131712F2
:10140000130C600F74282FF582742C1212281212FC
:10141000BA80EC12131712130C600F74302FF58280
:10142000742C1212281212BA80EC12131712130C19
:10143000600F74382FF582742C1212281212BA80A1
:10144000EC121317121373600F74402FF582742C73
:101450001212281212BA80EC902C601212941212FE
:101460003012131712130C600F74622FF582742C54
:101470001212281212BA80EC121317121373600F93
:10148000746A2FF582742C1212281212BA80EC9012
:101490002C8A121294121230121317902C8AE49391
:1014A000FE740193FF7813E2FC08E2FD6F7002EC1A
:1014B0006E6010748C2DF582742C3C12122912125D
:1014C000BA80D89009F380461211F7E4F09007FB38
:1014D000E0F52AE52A640170081223A79009FD802F
:1014E0002D78011212117403F01200269009FDE00C
:1014F00054FEF080361211F7E4F0802F1211F7E459
:10150000F012103C80251211F7E4F09009F8E04445
:1015100001F080171211F7E4F0900A09E0FF1212AF
:101520003080087A26796A121531227F011215401F
:10153000227BFF85292F12073EE47801F208F22270
:101540008F2B7802121F2B7F0112224F7801E2FCB1
:1015500008E2FD2453F582740A3CF583EFF07BFF2B
:101560007A2979C18C2F8D30900A54E0F531A3E0AF
:10157000F53212073E900A56E0FF7815E4F208EFC4
:10158000F2E27F0018F2FE08EFF2A3E0FDEDFF1893
:10159000EEF2FE08EFF27BFF7A2979E68E2FF53026
:1015A00012073E7815E4F2087404F2121F98121F15
:1015B0003C7002EC6E60157BFF7A2979EC121F7F7C
:1015C000F52F12073E7816121F2B80DF7BFF7A293A
:1015D00079F37801E2FE08E22453F582740A3EF5BD
:1015E00083E0F52F12073E7FFF1225FC7FFF1225B7
:1015F000FC7801E2FF1225FC780108E2FF1225FCCD
:10160000121FB4121F357002EC6E600E121F7FFFA6
:101610001225FC7816121F2B80E9E52B64017079E6
:10162000900A0AE0FF9007FAE0B507152401FDE4EF
:1016300033FCED64034C7003F080069007FAE0047D
:10164000F07801E2FC08E2FDEF121F73ECF0ED12FE
:101650001FB2121F357002EC6E6025121F7FFF90C3
:101660000A0AE0FE75F0F4121FBBEE2583F583E550
:10167000822DF582E5833CF583EFF0121F2B80D29B
:10168000900A0AE02401FFE433FEEF64034E700386
:10169000F08006900A0AE004F0E52B6402702678D8
:1016A00001E2FF08E2900A11CFF0EF121FB2121F01
:1016B000357002EC6E600E121F7FFF121FCFEFF02D
:1016C000121F2B80E922E47814F212134E1212CE6C
:1016D000900A13F0E418F212133760111212C6FECA
:1016E00074142FF582E4340A12132580EAE4781387
:1016F000F212133760111212C6FE741C2FF582E429
:10170000340A12132580EAE47813F21213376011B9
:101710001212C6FE74242FF582E4340A12132580B7
:10172000EAE47813F27813E2600512138660191266
:10173000134C1212CEFF18E2242CF582E4340AF581
:1017400083EFF0E204F280DDE47813F27813E260D4
:1017500005121386601912134C1212CEFF18E224E0
:101760003CF582E4340AF583EFF0E204F280DDE434
:101770007813F212133760111212C6FE744C2FF553
:1017800082E4340A12132580EA7BFF7A29791D90BE
:101790000A13E0F52F12073E752F0175300A7531D7
:1017A000147A29794812181675300A75311C7A296D
:1017B000796112181675300A7531247A29797412F4
:1017C000181F75300A75312C7A29798712181F7500
:1017D000300A75313C7BFF7A29799012073E7BFFF6
:1017E0007A29799812073EE47813F2121337601DB4
:1017F0007BFF7A2979A2744C2FF582E4340AF583B1
:10180000E0F52F12073E7813E204F280DE7BFF7AC8
:101810002979A802073E7BFF12073E752F01227B24
:10182000FF12073E752F0122781374FFF20874C966
:10183000F2C3E494C9FEE494FF18F208CEF2122435
:101840005E041224738005C333CE33CED8F97914E5
:10185000F3EE19F31224215001227FCC1224E37FEE
:10186000BE1224E31223E77810EFF21223E7780F79
:10187000EFF27811E4F208EFF2E27F0018F2FE08CE
:10188000EFF27810E2FDEE08F2ED08F212245EFFAE
:10189000C374039F1224738005CEC313CE13D8F9EB
:1018A000FF7811EEF208EFF2EE30E43118E2FE08B4
:1018B000E2FFEE30E327EFF4FFEEF418F208EFF268
:1018C000E22401F218E23400F2E2FE08E2FFC378FB
:1018D00014E29F7912F318E29E19F380107813E254
:1018E000FE08E2FF7812E22FF218E23EF27811E2EF
:1018F000FE08E2FF901030E0FCA3E0FDEC540FFA8C
:10190000EF6D7002EE6A607AEE540FFEEC54F04E0A
:10191000FE901030EEF0A3EFF09009FDE04401F0EE
:10192000901032E0FF54017011A3E0FCA3C3122415
:101930006B4007EF4401901032F0901032E0FF54FA
:10194000016401700F9010351224655007EF54FEAA
:10195000901032F012247D700F90103712246550D1
:1019600007EF4402901032F012247D64017013904E
:101970001039E0FCA3C31224694007EF54FD901016
:1019800032F0C3227E007F0C7D007B017A1079301B
:101990001206B012242150097BFF7A2C79CC021A4E
:1019A000A07FCC1224E37FBE1224E31223E712238C
:1019B000E71223E78F221223E78F231223E7EFC4D6
:1019C000135403FF90103BE054FC4FF0540304FF0A
:1019D0007E007455A807088005C333CE33CED8F9EE
:1019E000901033122456FF7E007401A8070880056A
:1019F000C333CE33CED8F9FFC3ED9FFFEC9E9010DA
:101A000035F0A3EFF012245E04FF7E00744DA807AA
:101A1000088005C333CE33CED8F990103712245640
:101A2000FF7E007401A807088005C333CE33CED8EB
:101A3000F92DFFEE3C901039F0A3EFF0122598122B
:101A4000245E14600F1460111460132403701212CA
:101A500025CA800D1225D780081225BB80031225C8
:101A6000E41218287BFF7A2C79F712073E7BFF7A65
:101A70002D790D85222F85233012245EF5319010AB
:101A800033E0F532A3E0F533A3E0F534A3E0F53518
:101A9000A3E0F536A3E0F537A3E0F538A3E0F53988
:101AA00012073E229007FBE0FF9007EFE054F0FEA4
:101AB000121363EE540FFAEE54F0F583758200AE04
:101AC00002EF7808088005C333CE33CED8F9FFEE95
:101AD000540F4583FEE5824FFF1213639007FCE02D
:101AE000FDEE540FFAAB07EE54F0FEEAFCEB4DFDB1
:101AF000EC540F4EFFEDCF1213649007FDE0540F2E
:101B0000FF9007F1E054F04FF09007FEE0541FFF04
:101B10009007F2E054E04FF09007FFE0541FFF9071
:101B200007F3E054E04FF0900800E0543FFF9007C7
:101B3000F4E054C04FF0900801E0543FFF9007F5E7
:101B4000E054C04FF0900802E0FFE4FCFDFE1212EA
:101B50005490080312124990080412124990080583
:101B6000E0FFEB4FFFEAFEE9FDE8FC9007F6120606
:101B7000497BFF7A2879DE9007EFE0540FF52FA319
:101B8000E0F530A3E0540FF531A3E0541FF532A384
:101B9000E0541FF533A3E0543FF534A3E0543FF580
:101BA00035A3121289F5398E388D378C3602073EEF
:101BB0007BFF7A2C79B512000E12122E12136C12C2
:101BC000132E600EEE902CB512122C780FE204F258
:101BD00080ED7BFF7A2C79C012000E12122E1213A8
:101BE0006C12132E600EEE902CC012122C780FE2A5
:101BF00004F280ED7BFF7A2C79C912000E12122EAE
:101C000012136C12132E600EEE902CC912122C7847
:101C10000FE204F280ED7BFF7A2C79CA12000E12DB
:101C2000122EE4FCFDFE781512065578111206619D
:101C3000000000007815121391FF7811E2FB08E212
:101C4000F908E2FA08E2CBF8C3120612602978110B
:101C50000808E2FE08E224CAF582742C12122878E1
:101C6000111213912401FFE43EFEE43DFDE43CFC2F
:101C7000781112065580BD7BFF7A2C79CB12000EAD
:101C800012122E12136C12132E600EEE902CCB1229
:101C9000122C780FE204F280ED229005FCE0FF7830
:101CA00000E2B507067F01C00780047F00C007D0AF
:101CB00007C007EF540125E0FE9009F3E054FD4E04
:101CC000F0D007EF60087F02121E5A7F00229007B3
:101CD000FAE07815F2900A0AE0FF7815E2FE6F70DC
:101CE00003021D7C75F0F4EEA42420F582E5F034A7
:101CF00000F583EE2583F583E0FF7800E26F7069DD
:101D00007FFF1225FC7FFF1225FC121F70E0FF12DF
:101D100025FC121F70A3E0FF1225FCE47813F208E3
:101D2000F27815E2FF121F73E0FCA3E0FD7813E2E6
:101D3000FA08E2FB6D7002EA6C602275F0F4EF12B3
:101D40001FBBEF2583F583E5822BF582E5833AF50A
:101D500083E0FF1225FC7814121F2B80C47BFF7ACE
:101D60002B79E712073E7F00227815E264037004A6
:101D7000F2021CD57815E204F2021CD57F012290F4
:101D800009FDE05401640170157F05121FE4EF7036
:101D90000D9009FD121282FF9009FE12064990096A
:101DA000F3E0C3135401640170057F01121E5A90C1
:101DB00009F8E054016401701BA312127612128616
:101DC000C39BFFEE9A7B587A0212133E500653C70C
:101DD000BF43C720900A02E05401702AA312127672
:101DE000121286C39BFFEE9A7BE87A0312133E50D1
:101DF000151225984010900A02E04401121285FF46
:101E0000900A03120649900A02E0540164017049E5
:101E1000A3121276121286C39BFBEE9AFAED99F981
:101E2000EC98F890103BE0540375F002A42459F5A7
:101E300082E5F0342DF583E493FE740193FFE4FC16
:101E4000FDC31206124012121828400D900A021209
:101E50001282FF900A03120649228F28121FC754CC
:101E60000764037008EF54FDF054E3F022E52864A2
:101E70000170419009F4E0F8A3E0F9A3E0FAA3E0CF
:101E8000FB121FA4C39BFFEE9AFEED99FDEC98FC9C
:101E9000E47BC8FAF9F8D31206124003021F1E129F
:101EA0001FC7543FFEEF54E3FFEE045407FE25E046
:101EB00025E04FF0E528640270079009F3E054E351
:101EC000F07FFF1225FC7FFF1225FC900A11E0FF36
:101ED0001225FC900A11A3E0FF1225FCE47816F20B
:101EE00008F2900A11E0FEA3E0FF7816121F3E7080
:101EF00002EC6E600F121FCFE0FF1225FC78171264
:101F00001F2B80DE121FA4FF9009F41206497BFFED
:101F10007A2C7904121FC75407F52F12073E223C72
:101F2000F583E0FF7817E22FF27819E22401F21826
:101F3000E23400F2227801E2FE08E2FF7815E2FCCA
:101F400008E2FD6F22780FE2FE08E22448F5827471
:101F50000C3EF583E022E27F0018F2FE08EFF278F3
:101F60000FE2FC08E22448F582740C3CF583E02281
:101F70007815E225E0240BF582E4340AF583227417
:101F8000542DF582740A3CF583E022E2FC08E2FD60
:101F9000ECFF7817E22FF2227802E224FFFF18E22A
:101FA00034FFFE229009EFE0FCA3E0FDA3E0FEA3D6
:101FB000E022A3F0E47815F208F222A4241FF582AF
:101FC000E5F03400F583229009F3E0FF1313227447
:101FD000FB2DF58274053CF58322FDEEF2ED08F24F
:101FE0007807E2228F229009F3E0FFC313540164C3
:101FF000016005EF540170037F01227BFF7A27798E
:102000005385222F12209C18121211E522F0781EFF
:10201000E212122DE52224F7602A24FE604024F803
:10202000603C24FE603824FE603424F6603424F8DA
:10203000602C2424703A1211F712120F7404F0125B
:10204000002680381211F7E4F0900A08E0C4135417
:1020500007FF12123064047023121BB0801E780137
:1020600080077801121211E4F01211F9E4F0800CEB
:102070007BFF7A27797012209C7F02227F02121543
:10208000409009F3E04402F054E3121285FF9009F6
:10209000F4120649781EE204F27F002212073EE4A1
:1020A0007801F208F222C0E0C0F0C083C08263A2CF
:1020B00001C083C082C0D075D000C000C002C00380
:1020C000C004C005C006C007E58430E0555384FE57
:1020D000D291781DE22401FB18E23400FA7C037DE2
:1020E000E8AF03FE1205AF781BE2B5050918E2B5AB
:1020F0000404C2918031781CE2FE08E22448F58293
:10210000740C3EF583E585F0BA030ABBE80718E4D2
:10211000F208F28012781DE22401F218E23400F293
:1021200080055384FDC20AD007D006D005D004D064
:1021300003D002D000D0D0D082D08363A201D0825D
:10214000D083D0F0D0E032787FE4F6D8FD758147B7
:1021500002218E020003E493A3F8E493A34003F664
:102160008001F208DFF48029E493A3F85407240CDB
:10217000C8C333C4540F4420C8834004F4568001BC
:1021800046F6DFE4800B0102040810204080902610
:1021900048E47E019360BCA3FF543F30E509541F1F
:1021A000FEE493A360010ECF54C025E060A840B8C0
:1021B000E493A3FAE493A3F8E493A3C8C582C8CA3E
:1021C000C583CAF0A3C8C582C8CAC583CADFE9DE11
:1021D000E780BE8F289005FBE0FFB52809A3E0FE4D
:1021E0007800E26E60247BFF7A2679A285282F8F03
:1021F000307800E2F5319005FCE0F53212073E90B0
:102200000A097402F07F1202139C7BFF7A2679FF81
:1022100085282F12073E9009F3E054FDF0E52824AD
:10222000FB602B24FC602724FE602324F8601F241D
:10223000FE601B24F4600B24F86013241270060265
:102240001AA40216C67BFF7A27791D12073E22E4E4
:102250007817F2EF146042047068780A121F8BE25C
:102260002DF27808E2121F917800E2121F91780394
:10227000121F8BE22DF2E408F208F2780CE2FE085D
:10228000E2FF7818121F3E7002EC6E603574FB2D71
:10229000F5827407121F1F80E27801121F8BE22D56
:1022A000F2E408F208F2121F987818E2FC08E2FD46
:1022B000C39FEC9E500C74542DF582740A121F1F9C
:1022C00080E47817E2FF22C0E0C0F0C083C08263E0
:1022D000A201C083C082C0D075D000C000C004C0BD
:1022E00005C006C0079009EFE0FCA3E0FDA3E0FEF7
:1022F000A3E02401FFE43EFEE43DFDE43CFC900944
:10230000EF120649D007D006D005D004D000D0D0B7
:10231000D082D08363A201D082D083D0F0D0E032CB
:102320008F258E248D238C22300038E4FFFEFD7C27
:1023300040AB25AA24A923A82212018EE4FBFA7936
:102340008078BF12009D120294780FEEF208EFF22F
:1023500018E2547FF2E2FE08E2F5AAEE547FF5ABF4
:1023600043AB802212261212255F1225AA1224875F
:10237000122510C2007F007E007D807C3F1223204A
:1023800012257E7BFF7A2D796112073E1224B61248
:1023900019847BFF7A2D797D12073EE4781CF208C0
:1023A000F2781AF208F2229007FCE07815F2FFA307
:1023B000E008F2EF5401600BE254016004C2908027
:1023C00002D2907815E2FF5402600C08E2540260D9
:1023D00004C2878002D2877BFF7A27798C8F2F787F
:1023E00016E2F53002073ED2C112262FE47815F22C
:1023F00008F27815E26408602308E2FFC313F2C212
:10240000C1122642D2C112264230C1067816E244D9
:1024100080F21226077815E204F280D67816E2FFE1
:102420002278157414F2D2C1122607C2C1122626D0
:10243000D2C112262F30C1077815E214F270F3785A
:1024400015E2700B7BFF7A2D794212073ED322D220
:10245000C112261CC322FFEEF0FCA3EFF0FD90108A
:102460003BE0540322E0FCA3D37812E0FDE29D1888
:10247000E29C22FF18E2FE08E2A807082290103230
:10248000E0FFC313540122E47525D07524FFF52322
:10249000F52275984053873F438E05E525FFE48F6D
:1024A000D7AF25AE24AD23AC2278081206238FD6F1
:1024B000C209438E102212253C7E007F1B7D007BCB
:1024C000017A0979EF1206B0E47801F208F2900A75
:1024D0000AF09007FAF0900A09F07BFF7A2979ABAD
:1024E00002073E8F24E47815F27815E26408601F35
:1024F000C2C1122642E5241392C1122607D2C1128C
:1025000026427815E204F2E524C313F52480DA228A
:10251000E47525C07524FDF523F52275845043D15B
:1025200020E525FFE48FD3AF25AE24AD23AC227880
:10253000081206238FD2C20A43D18022E47806F221
:1025400008F27805F27809F208F208F27808F278D1
:1025500000F27803F208F2780CF208F208F2225343
:10256000B1FE53B2FE53B1FD43B2025393FB5394F9
:10257000FB5393F743940853B1BF43B24022D2A90F
:10258000D2AC53AFFB43AF1053AFBFD2B943B70286
:10259000D2BC53B7EFD2AF221224215001227FCCFC
:1025A0001224E37F441224E3C322438E805389F034
:1025B000758A9A758CA9C28DD28C227F127E347D49
:1025C0002C0000DFFEDEFCDDFA227F7A7E397D0CF6
:1025D000DFFEDEFCDDFA227FF87E717D17DFFEDE96
:1025E000FCDDFA227F8A7ED77D56DFFEDEFCDDFA37
:1025F000222009FDD2098F992009FD22200AFDD24F
:102600000A8F85200AFD227FB67E020000DFFEDEF3
:10261000FC2253C1DF53FFAF53FFFC227FB97E047E
:1026200000DFFEDEFC227FEC7E0EDFFEDEFC227F82
:10263000470000DFFE22120B4B021D7F1225F17FA7
:1026400001227F0500DFFE22811E00004C4F472340
:102650003A48616E646C6520576946692041736B26
:102660005B25303262785D0D0A004552523A476967
:102670007A7769747348616E646C6557694669411D
:10268000736B2063616E277420416E7320746869D8
:102690007320416E73436D645B25303262785D0D4B
:1026A0000A004552523A47697A7769747348616EF5
:1026B000646C6557694669416E7320666F756E6418
:1026C0002041736B436D645B25303262787C25302A
:1026D0003262785D6F7220536E5B25303262787C97
:1026E00025303262785D696C6C6567616C2C416E77
:1026F000732D3E307831325F307830320D0A004C25
:102700004F47233A48616E646C65205769466920DB
:10271000416E735B25303262785D0D0A004552527E
:102720003A4D43552041736B436D6420666F7220B0
:102730005769466920416E7320697320756E6B6E10
:102740006F776E2C736572696F75732045525221D5
:102750000D0A004C4F47233A48616E646C65204D6A
:1027600043552041736B5B25303262785D0D0A0062
:102770004552523A5468652041736B436D64206939
:102780007320756E6B6E6F776E0D0A004C4F47238A
:102790003A5769466920436F6E74726F6C206F6B95
:1027A0005B25303262782C25303262785D0D0A006C
:1027B0004C4F473A4765742044657653746174659D
:1027C0005B25303262782C25752C002530326278FA
:1027D0005D0D0A004C4F473A257320536F667441D4
:1027E00050204D6F64650D0A00456E74657200459A
:1027F000786974004C4F473A2573205374617469AB
:102800006F6E204D6F64650D0A004C4F473A25737B
:10281000204F6E426F617264696E67204D6F646510
:102820000D0A00202020202573204D6F64650D0ABD
:1028300000536F66744150004169724C696E6B00C1
:102840004C4F473A25732042696E644D6F64650DA5
:102850000A004C4F473A576972654C6573732052B2
:102860006F7574652025730D0A00436F6E6E656386
:102870007400446973636F6E6E656374004C4F47F8
:102880003A4D324D207365727665722025730D0ABC
:10289000004C4F473A526F75746520525353492D7F
:1028A0002562750D0A004C4F473A25732061707000
:1028B000206F6E6C696E65206E6F770D0A0048613F
:1028C0007665004E6F6E65004C4F473A2573207059
:1028D000726F6475637420746573740D0A004C4FD5
:1028E000473A476574205265616C2054696D652CC8
:1028F000253034752E25303262752E2530326275C2
:102900002C25303262753A25303262753A253032E4
:1029100062752C4E54503A256C750D0A004C4F4789
:102920003A47657420576946692050726F70657226
:102930007479400D0A4D6F64756C65547970653A11
:1029400025303262750D0A0053657269616C5072F0
:102950006F746F636F6C5665723A252E38730D0A6B
:102960000048617264776172655665723A252E3847
:10297000730D0A00536F6674776172655665723A1B
:10298000252E38730D0A004D61633A25730D0A0038
:1029900049703A25730D0A0050726F706572747930
:1029A0003A002530326278000D0A004C4F47233A36
:1029B00047697A77697473496E6974206F6B0D0A81
:1029C000004C4F47233A47697A7769747353656EB1
:1029D000642020203A253034782025303262782057
:1029E00025303262780020253034780020253032BE
:1029F0006278002025303262780D0A004552523A42
:102A000047697A776974735265636569766520638F
:102A1000616E27742066696E6420307846460D0A20
:102A2000004552523A47697A776974735265636513
:102A3000697665204C656E2C20627574206974205F
:102A400077696C6C20636175736520526563656995
:102A50007665427566666572206F766572666C6F24
:102A6000770D0A004552523A47697A776974735272
:102A70006563656976652072656365697665206F53
:102A80006E65207061636B65742C20627574206CB8
:102A9000656E20696E76616C69640D0A004C4F4763
:102AA000233A47697A776974735265636569766515
:102AB0003A25303478202530326278202530326251
:102AC000782025303478004552523A5061636B6566
:102AD0007420466C616773206572726F722C416E50
:102AE000732D3E307831325F307830330D0A004537
:102AF00052523A5061636B657420436D6420696E75
:102B000076616C6964206F72206572726F722C41FD
:102B10006E732D3E307831325F307830320D0A00DE
:102B20004C4F47233A41736B206F6E652070616391
:102B30006B657420697320696C6C6567616C2C4DE2
:102B400043552077696C6C2073656E7420616761F2
:102B5000696E0D0A004552523A2047697A776974C6
:102B60007353656E644F6C64204661696C2C536EC0
:102B7000206973206E6F7420666F756E642C6361BC
:102B80006E27742073656E7420616761696E0D0A2B
:102B9000004552523A5061636B657420756E6B6EDE
:102BA0006F776E206572726F722C416E732D3E309E
:102BB0007831325F307830330D0A004552523A2076
:102BC0005061636B65742053756D20636865636B3A
:102BD000206661696C2C416E732D3E307831325F16
:102BE000307830310D0A004C4F47233A47697A77E5
:102BF00069747353656E644F6C6420416E73206F0B
:102C00006B0D0A004C4F47233A47697A7769747312
:102C1000526541736B20436E742D2562750D0A0059
:102C2000303030303030303430303030303030329E
:102C300048613230303430324873323030343037DB
:102C40006336343931663962633931623439376316
:102C500038306665663231616430316462393336EA
:102C6000001E0000000000000000323161303831E9
:102C700036376437643834643433616135323566ED
:102C800063353631373065376664002861704E61D0
:102C90006D653D455350383236365F536F6674412B
:102CA000504D6F64652661705077643D6173646652
:102CB000313233340042656C6F75735749464900B1
:102CC0003132333430393837000000004552523A3F
:102CD00044533138423230496E6974206661696C00
:102CE000207768656E20445331384232305354495E
:102CF0006E6974210D0A004C4F47233A4453313812
:102D0000423230496E6974206F6B0D0A004C4F4798
:102D10003A54482D2562752C544C2D2562752C4D46
:102D20006F64652D2562752C48312D25752C483230
:102D30002D25752C4C312D25752C4C322D25750DDE
:102D40000A004552523A44533138423230496E6992
:102D500074206661696C0D0A00005F00BE017A0292
:102D6000F14C4F47233A496E7465726E616C20498D
:102D70006E69742046696E6973680D0A004C4F478E
:102D8000233A45787465726E616C20496E697420CF
:092D900046696E6973680D0A00C2
:00000001FF
